:100000000C94E0190C94111A0C94111A0C94111AF6
:100010000C94111A0C94111A0C94111A0C94111AB4
:100020000C94111A0C94111A0C94111A0C94111AA4
:100030000C94111A0C94111A0C94111A0C94111A94
:100040000C94111A0C949C610C94111A0C94111AB2
:100050000C94111A0C94111A0C945E6B0C94F2B05F
:100060000C94111A0C940E420C94111A0C94111A3F
:100070000C94111A0C94111A0C94111A0C94111A54
:100080000C94111A0C94111A0C94111A0C94111A44
:100090000C94111A0C94111A0C94111A0C94111A34
:1000A0000C94111A0C94111A0C94111A0C94111A24
:1000B0000C94111A0C94111A0C94111A0C94111A14
:1000C0000C94111A0C94111A0C94111A0C94111A04
:1000D0000C94111A0C94111A0C94111A0C94111AF4
:1000E0000C94111ACB6BDB6BFA6B0A6C256C2A6CC7
:1000F0002D6C326C356C3A6C3D6C426C4C6C41AF83
:1001000044AF33AF37AF3DAF7BAF48AF4CAF52AF2B
:1001100056AF5AAF60AF64AF68AF7BAF6EAF72AF30
:1001200076AF0EB013B018B022B02CB0A5B036B078
:100130003EB046B050B05AB064B073B07DB0A5B018
:1001400087B091B09BB0084AD73B3BCE016E84BCD0
:10015000BFFDC12F3D6C74319ABD56833DDA3D0021
:10016000C77F11BED9E4BB4C3E916BAAAABE00006A
:1001700000803F05A84CCDB2D44EB93836A9020C48
:1001800050B9918688083CA6AAAA2ABE0000008021
:100190003F0020746F6F206C6F6E672065787472FB
:1001A0007573696F6E2070726576656E7465640A2A
:1001B0000020636F6C6420657874727573696F6E6C
:1001C0002070726576656E7465640A00536C6565AF
:1001D000702E2E2E00206669727374005A0059002A
:1001E0005800486F6D6520002066697273740A00BC
:1001F0005A0059005800486F6D65200052657375AC
:100200006D696E67207072696E74004F64696E204C
:100210004F6E652072656164792E005761697420A4
:10022000666F7220757365722E2E2E004E6F206DD4
:100230006F76652E00456E642066696C65206C697A
:1002400073740A00426567696E2066696C65206C8C
:100250006973740A0046696C652064656C65746531
:10026000643A0044656C6574696F6E206661696C00
:1002700065642C2046696C653A20006F70656E20BD
:100280006661696C65642C2046696C653A20004B98
:10029000494C4C45442E20004D3131332053006FE2
:1002A0006B0042656420646F6E652E003F0A00207B
:1002B000573A004265642048656174696E672E0094
:1002C0004F64696E204F6E652072656164792E00FF
:1002D0004F64696E204F6E65204F66662E0046495A
:1002E000524D574152455F4E414D453A4D61726CFA
:1002F000696E20302E312E302D524331202847692F
:10030000746875622920534F555243455F434F44EB
:10031000455F55524C3A68747470733A2F2F676971
:10032000746875622E636F6D2F4D61726C696E46D5
:1003300069726D776172652F4D61726C696E2050C4
:10034000524F544F434F4C5F56455253494F4E3ACC
:10035000312E30204D414348494E455F5459504558
:100360003A4F64696E204F6E65204558545255448B
:1003700045525F434F554E543A3120555549443A02
:1003800064663638613439372D643430372D343370
:1003900039652D386534662D333762643836353427
:1003A000643366340A007A5F6D696E3A2000795FC3
:1003B0006D696E3A2000785F6D696E3A2000526573
:1003C000706F7274696E6720656E6473746F7020ED
:1003D0007374617475730A004D31343520533C6970
:1003E0006E6465783E206F7574206F662072616E52
:1003F00067652028302D31290A0053657474696EB1
:10040000672054726176656C20416363656C657228
:100410006174696F6E3A200053657474696E672069
:100420005265747261637420416363656C657261C7
:1004300074696F6E3A200053657474696E6720505A
:1004400072696E7420416363656C65726174696F73
:100450006E3A200053657474696E67205072696E3D
:100460007420616E642054726176656C2041636310
:10047000656C65726174696F6E3A200020643A00A1
:1004800020693A0020703A0043290A0061626C65D5
:100490006420286D696E2074656D702000436F6C58
:1004A00064206578747275646573206172652000DC
:1004B00023646566696E65202044454641554C5469
:1004C0005F4B64200023646566696E6520204445A7
:1004D0004641554C545F4B69200023646566696E44
:1004E00065202044454641554C545F4B70200050D8
:1004F0004944204175746F74756E652066696E6934
:1005000073686564212050757420746865206C617F
:100510007374204B702C204B6920616E64204B64F7
:1005200020636F6E7374616E74732066726F6D20DA
:1005300062656C6F7720696E746F20436F6E6669B9
:100540006775726174696F6E2E680A0050494420A5
:100550004175746F74756E65206661696C656421A0
:100560002074696D656F75740A00504944204175A7
:10057000746F74756E65206661696C6564212054C2
:10058000656D706572617475726520746F6F206837
:100590006967680A00204B643A2000204B693A20C2
:1005A00000204B703A200020436C61737369632014
:1005B000504944200A002054753A2000204B753AD7
:1005C0002000206D61783A2000206D696E3A20008D
:1005D00020643A200020626961733A20004F666609
:1005E00073657473206170706C6965640045727224
:1005F0003A20546F6F206661722100546F6F20663D
:1006000061722066726F6D207265666572656E63D9
:100610006520706F696E740A0041637469766520A5
:1006200045787472756465723A2000220A00556E2E
:100630006B6E6F776E20636F6D6D616E643A202212
:10064000002569730025696D202569730025696897
:100650002025696D20256973002569642025696856
:100660002025696D20256973002569792025696435
:10067000202569682025696D20256973004E6F204B
:100680004C696E65204E756D62657220776974687D
:1006900020636865636B73756D2C204C61737420E7
:1006A0004C696E653A20004B494C4C45442E200065
:1006B00053544F505045442E20005072696E74655B
:1006C000722073746F707065642064756520746F38
:1006D000206572726F72732E204669782074686587
:1006E000206572726F7220616E6420757365204D93
:1006F00039393920746F20726573746172742E20D9
:100700002854656D70657261747572652069732017
:1007100072657365742E2053657420697420616658
:100720007465722072657374617274696E67290AE8
:10073000004E6F20436865636B73756D2077697435
:1007400068206C696E65206E756D6265722C204C38
:10075000617374204C696E653A2000636865636B51
:1007600073756D206D69736D617463682C204C61C5
:100770007374204C696E653A20004C696E65204E9A
:10078000756D626572206973206E6F74204C6173A1
:1007900074204C696E65204E756D6265722B312C2C
:1007A000204C617374204C696E653A20004D3131E4
:1007B00030004D3331004D383420582059205A2014
:1007C000450053442072656164206572726F720A3D
:1007D00000446F6E65207072696E74696E67206682
:1007E000696C650A0020496E76616C6964206578E1
:1007F000747275646572200000004843000048432D
:1008000000003943000010C20000A0C0000000003A
:100810005344207072696E74696E672062797465E2
:1008200020004E6F74205344207072696E74696E9C
:10083000670A005072696E742074696D653A200011
:100840006D0046696C616D656E7420757365643A00
:10085000200053746174733A20002C204C6F6E6733
:10086000657374206A6F623A2000546F74616C2063
:1008700074696D653A200053746174733A20002CDA
:10088000204661696C65643A20002C2046696E69D7
:10089000736865643A20005072696E74733A200080
:1008A00053746174733A200048617264636F6465C5
:1008B000642044656661756C742053657474696E58
:1008C0006773204C6F616465640A0020204D3230EC
:1008D000302044300A0020204D32303020440020A7
:1008E00044697361626C65640A0046696C616D6598
:1008F0006E742073657474696E67733A00204400E7
:1009000020490020204D33303120500050494420F0
:1009100073657474696E67733A0A0020460020425A
:100920000020204D3134352053312048002046002E
:1009300020420020204D3134352053302048004DD6
:100940006174657269616C2068656174757020708E
:100950006172616D65746572733A0A00205A0020F5
:10096000590020204D323036205800486F6D6520E8
:100970006F666673657420286D6D290A0020450036
:10098000205A0020580020420020540020204D32E0
:100990003035205300416476616E63656420766172
:1009A000726961626C65733A20533D4D696E2066D1
:1009B0006565647261746520286D6D2F73292C2024
:1009C000543D4D696E2074726176656C2066656574
:1009D000647261746520286D6D2F73292C20423D4F
:1009E0006D696E696D756D207365676D656E7420D8
:1009F00074696D6520286D73292C20583D6D6178D0
:100A0000696D756D205859206A65726B20286D6D6F
:100A10002F73292C20205A3D6D6178696D756D20EA
:100A20005A206A65726B20286D6D2F73292C202047
:100A3000453D6D6178696D756D2045206A65726B05
:100A400020286D6D2F73290A0020540020520020A9
:100A5000204D323034205000416363656C65726113
:100A600074696F6E733A20503D7072696E74696E6E
:100A7000672C20523D7265747261637420616E64EC
:100A800020543D74726176656C0A00204500205A3E
:100A90000020590020204D3230312058004D61781F
:100AA000696D756D20416363656C65726174696F12
:100AB0006E20286D6D2F7332293A0A0020450020E0
:100AC0005A0020590020204D3230332058004D610B
:100AD00078696D756D2066656564726174657320F3
:100AE000286D6D2F73293A0A00204500205A0020F6
:100AF000590020204D3932205800537465707320FE
:100B000070657220756E69743A0A00253032693A50
:100B100025303269005A00590020003F0058000972
:100B200020000000000000000000000000007FFF27
:100B3000E00000000000000000000000007000E085
:100B400000000000000000000000000061F86000EC
:100B5000000000000000000000000041F82000003C
:100B60000000000000000000000040F02000000035
:100B700000000000000000000040602000000000B5
:100B800000000000000000005801A07F800000006D
:100B9000000000004104005C63A0FFC000000000F2
:100BA0000000002082005EF7A0FFC00000000000EF
:100BB00000002082005EF7A0FFC0000000000000DF
:100BC000004104005C63A07F800000000000000082
:100BD0008208005801A07F8000000000000001048E
:100BE0001000406020FFC000000000000001041061
:100BF0000040F020FFC0000000000000008208005C
:100C000041F820FFC0000000000000004104006126
:100C1000F8603F00000000000000000000007000CD
:100C2000E01E0000000000000001FFFF807FFFE0E9
:100C30000C0000000000000001FFFF800000000029
:100C400000000000000000000000007FFFE0000046
:100C5000000000000000000000007000E000000044
:100C6000000000000000000000630C6000000000B5
:100C70000000000000000000470E200000000000FF
:100C8000000000000000004F0F20000000000000E6
:100C90000000000000005F0FA00000000000000046
:100CA00000000000005E07A07F8000000000000040
:100CB00000410400406020FFC00000000000000070
:100CC00020820040F020FFC0000000000000002053
:100CD000820040F020FFC00000000000000041043E
:100CE000004060207F8000000000000000820800BB
:100CF0005E07A07F80000000000000010410005F7C
:100D00000FA0FFC0000000000000010410004F0F02
:100D100020FFC000000000000000820800470E20F5
:100D2000FFC000000000000000410400630C603FB1
:100D300000000000000000000000007000E01E0045
:100D400000000000000001FFFF807FFFE00C0000BA
:100D5000000000000001FFFF800000004E6F2053E4
:100D6000442063617264005072696E742066726F11
:100D70006D2053440041626F7574205072696E7427
:100D800065720053746F70207072696E74005265E2
:100D900073756D65207072696E740050617573654E
:100DA000207072696E7400436F6E74726F6C0050C5
:100DB0007265706172650054756E6500496E666F8C
:100DC0002073637265656E0000060900FE00000076
:100DD000000001090008FE000005080806000040A8
:100DE000F0C88888987810050808060000C0F888C0
:100DF00088888888F80505050600012030F830202D
:100E00000508080600002070F820202020E00509D1
:100E1000090600FF2070A8A8B88888702005090975
:100E20000600FFE080C0B0A8283028280509090680
:100E300000FFF8A88888888888A8F8050A0A0600AC
:100E4000FE205050505088A8A88870030303060065
:100E50000340A040436172642072656D6F766564E3
:100E6000004361726420696E73657274656400008A
:100E7000060900FE070192032120FFFF08FF07FF7C
:100E80000000000600000107070602008080808045
:100E9000800080030202060105A0A00507070600E6
:100EA000005050F850F85050050707060000207811
:100EB000A07028F020050707060000C0C8102040D9
:100EC00098180507070600006090A040A8906802E7
:100ED0000303060104C04080030707060100204009
:100EE00080808040200307070601008040202020EA
:100EF000408005050506000120A870A8200505050D
:100F00000600012020F820200203030602FFC04053
:100F100080050101060003F8020202060200C0C0BB
:100F2000050505060001081020408005070706009A
:100F3000007088888888887003070706010040C011
:100F400040404040E00507070600007088087080B8
:100F500080F8050707060000F81020100808F005C3
:100F6000070706000010305090F81010050707061C
:100F70000000F880F0080888700507070600007078
:100F80008080F0888870050707060000F8081020A8
:100F90002020200507070600007088887088887068
:100FA00005070706000070888878080870020505A4
:100FB000060200C0C000C0C00206060602FFC0C094
:100FC00000C0408004070706000010204080402039
:100FD00010050303060002F800F8040707060100E5
:100FE0008040201020408005070706000070880818
:100FF0001020002005070706000070880868A8A8D0
:1010000070050707060000708888F888888805073B
:1010100007060000F08888F08888F00507070600BA
:101020000070888080808870050707060000F088BF
:1010300088888888F0050707060000F88080F0801F
:1010400080F8050707060000F88080F080808005A2
:101050000707060000708880B888887005070706B3
:101060000000888888F888888801070706020080C1
:1010700080808080808005070706000038101010EF
:101080001090600507070600008890A0C0A0908817
:10109000050707060000808080808080F80507072C
:1010A00006000088D8A888888888050707060000F9
:1010B0008888C8A89888880507070600007088886F
:1010C00088888870050707060000F08888F080800F
:1010D0008005070706000070888888A890680507C3
:1010E00007060000F08888F0A09088050707060032
:1010F00000788080700808F0050707060000F820D7
:10110000202020202005070706000088888888887E
:1011100088700507070600008888888888502005A1
:1011200007070600008888888888A85005070706F2
:10113000000088885020508888050707060000882E
:10114000888850202020050707060000F808102096
:101150004080F8030707060100E08080808080E07F
:101160000505050600018040201008030707060159
:1011700000E02020202020E005030306000420508A
:1011800088050101060000F80202020602058040FF
:101190000505050600007008788878050707060031
:1011A000008080B0C88888F00505050600007080C2
:1011B0008088700507070600000808689888887806
:1011C0000505050600007088F88070050707060011
:1011D000003048E0404040400506060600FF7088A9
:1011E000887808700507070600008080B0C88888E6
:1011F0008801070706020080008080808080030845
:10120000080601FF200020202020A0400407070638
:101210000000808090A0C0A090030707060100C0D6
:101220004040404040E0050505060000D0A8A8A8C1
:10123000A8050505060000B0C888888805050506CC
:10124000000070888888700506060600FFF0888810
:10125000F080800506060600FF7888887808080573
:101260000505060000B0C880808005050506000061
:1012700070807008F00407070600004040E040401E
:101280004030050505060000888888986805050532
:10129000060000888888502005050506000088881B
:1012A000A8A85005050506000088502050880506AE
:1012B000060600FF88888878087005050506000086
:1012C000F8102040F8030707060100204040804046
:1012D0004020010707060200808080808080800314
:1012E00007070601008040402040408005020206BA
:1012F00000026890000000060000000000060000E8
:1013000000000006000000000006000000000006CB
:1013100000000000000600000000000600000000C1
:1013200000060000000000060000000000060000AB
:10133000000000060000000000060000000000069B
:101340000000000000060000000000060000000091
:10135000000600000000000600000000000600007B
:10136000000000060000000000060000000000066B
:101370000000000000060000000000060000000061
:10138000000600000000000600000000000600004B
:10139000000000060000000000060000000000063B
:1013A0000000000000060000000000060000000031
:1013B000000600000000000600000000000600001B
:1013C00001070706020080008080808080050707F3
:1013D0000600002070A8A0A87020050707060000DE
:1013E000304040E04050A8050505060000887050D8
:1013F0007088050707060000885020F820F82001B3
:1014000007070602008080800080808005080806AB
:101410000000304820505020906003010106010771
:10142000A0050707060000F888B8B8B888F80507CF
:1014300007060001700878887800F80505050600A1
:10144000012850A05028050303060001F8080802EF
:1014500002020602064080050707060000F888A879
:101460008898A8F8050101060006F804040406009F
:1014700003609090600507070600002020F82020F8
:1014800000F804050506000360902040F003050500
:10149000060003E020E020E002020206020640808F
:1014A0000508080600FF8888888898E88080050776
:1014B00007060000789898781818180202020602A9
:1014C00002C0C00202020602FF40800305050600BA
:1014D0000340C04040E00507070600017088888887
:1014E0007000F8050505060001A0502850A005076A
:1014F000070600008890A858B808080507070600E6
:10150000008890B848982038050808060000C040B8
:10151000C048D8380808050707060000200020400A
:101520008088700508080600004020007088F88850
:10153000880508080600001020007088F8888805D3
:1015400008080600002050007088F8888805080800
:101550000600006890007088F88888050808060072
:10156000005000708888F888880508080600002068
:1015700050207088F888880507070600003860A0AA
:10158000B8E0A0B80508080600FF70888080887061
:101590002060050808060000402000F880F080F870
:1015A000050808060000081000F880F080F805081B
:1015B00008060000205000F880F080F805070706B4
:1015C00000005000F880F080F80308080601008051
:1015D0004000E0404040E0030808060100204000D1
:1015E000E0404040E003080806010040A000E04061
:1015F0004040E0030707060100A000E0404040E053
:10160000050707060000704848E8484870050808C4
:1016100006000068900088C8A89888050808060099
:10162000004020708888888870050808060000102F
:1016300020708888888870050808060000205000FF
:101640007088888870050808060000689000708817
:10165000888870050808060000500070888888880F
:101660007005050506000188502050880508080609
:1016700000FF1070A8A8A8A8704005080806000080
:101680004020888888888870050808060000102097
:10169000888888888870050808060000205000881F
:1016A00088888870050808060000500088888888A7
:1016B000887005080806000010208850202020208F
:1016C0000509090600FFC040704848704040E0042A
:1016D00008080601FF609090A09090E0800508083F
:1016E0000600004020007008788878050808060089
:1016F000001020007008788878050808060000208F
:101700005000700878887805080806000068900086
:101710007008788878050707060000500070087880
:10172000887805080806000020502070087888781E
:10173000050606060000D02878A0A8500506060673
:1017400000FF7080887020600508080600004020B7
:10175000007088F8807005080806000010200070EE
:1017600088F880700508080600002050007088F88E
:10177000807005070706000050007088F88070032D
:10178000080806010080400040C04040E00308080F
:1017900006010020400040C04040E0030808060168
:1017A0000040A00040C04040E0030707060100A041
:1017B0000040C04040E0050707060000A040A01020
:1017C000788870050808060000689000B0C888880E
:1017D0008805080806000040200070888888700589
:1017E0000808060000102000708888887005080826
:1017F00006000020500070888888700508080600E0
:1018000000689000708888887005070706000050FF
:101810000070888888700505050600012000F80022
:10182000200507070600FF1070A8A8A8704005084B
:101830000806000040200088888898680508080687
:1018400000001020008888889868050808060000B5
:101850002050008888889868050707060000500017
:1018600088888898680509090600FF102000888884
:1018700088F808700407070601FFC0406050604008
:10188000E00508080600FF50008888887808702462
:10189000F4D43050C38E20C2A24017828B70111234
:1018A0007A910D816CD90AA861E108C75866076171
:1018B0005143061E4B5D05C145A7041A4111040999
:1018C0003D9803713931034036DB0265339102D410
:1018D000305402802E1D02632CEE01752AC501B022
:1018E00028A001102781018F2564012B244B01E0E2
:1018F000223401AC211F018D200D01801FFC0084CA
:101900001EED00971DDF00B81CD200E61BC60020AC
:101910001BBC00641AB200B219A8000A19A0006A20
:10192000189900D117910040178B00B5168400312B
:10193000167E00B31579003A157300C7146F00586E
:10194000146A00EE1366008813630025135E00C757
:10195000125B006C12570015125400C11151007037
:10196000114F0021114B00D61049008D1047004641
:1019700010440002104200C00F4000800F3E0042A1
:101980000F3C00060F3B00CB0E3800930E37005C77
:101990000E3500270E3400F30D3200C10D310090DA
:1019A0000D3000600D2E00320D2D00050D2C00D9DC
:1019B0000C2B00AE0C2900850C29005C0C2700358F
:1019C0000C27000E0C2600E80B2400C40B2400A0FA
:1019D0000B23007D0B23005A0B2100390B2100182B
:1019E0000B2000F80A1F00D90A1E00BB0A1E009D2A
:1019F0000A1D00800A1D00630A1C00470A1B002CF8
:101A00000A1B00110A1A00F7091A00DD091900C49F
:101A1000091900AB091900920917007B0918006326
:101A20000917004C09160036091600200916000A8D
:101A3000091500F5081500E0081400CC081400B8DA
:101A4000081400A4081400900813007D0812006B0D
:101A50000813005808120046081200340811002329
:101A60000811001208110001081100F0071000E031
:101A7000071000D0071000C0071000B0070F00A12A
:101A800007100091070E0083070F0074070F006511
:101A9000070E0057070E0049070E003B070D002EEA
:101AA000070E0020070D0013070D0006070D00F9B3
:101AB000060C00ED060D00E0060C00D4060C00C874
:101AC000060C00BC060C00B0060C00A4060B009926
:101AD000060C008D060B0082060B0077060B006CCF
:101AE000060B0061060A0057060B004C060A00426E
:101AF000060A0038060A002E060A0024060A001A02
:101B0000060A001006090007060A00FD050900F490
:101B1000050900EB050900E2050900D9050900D017
:101B2000050900C7050900BE050900B5050800AD97
:101B3000050800A50509009C050800940508008C0F
:101B4000050800840508007C050800740508006C81
:101B5000050700650508005D050700560508004EED
:101B60000507004705070040050800380507003154
:101B70000507002A050700230507001C05060016B7
:101B80000507000F0507000805060002050700FB12
:101B9000040600F5040700EE040600E8040600E26F
:101BA000040700DB040600D5040600CF040600C9C4
:101BB000040600C3040600BD040600B7040600B115
:101BC000040500AC040600A6040600A00405009B62
:101BD00004060095040500900406008A04050085AB
:101BE000040500800406007A0405007504050070F1
:101BF0000405006B04050066040500610405005C33
:101C000004050057040500520405004D0405004872
:101C1000040500430405003E0404003A04050035B1
:101C2000040500300404002C0405002704040023EC
:101C30000405001E0404001A040400160405001123
:101C40000404000D04040009040500040404000059
:101C5000040400FC030400F8030400F4030400F08F
:101C6000030400EC030400E8030400E4030400E0C0
:101C7000030400DC030400D8030400D4030400D0F0
:101C8000030400CC030400C8030300C503030024BD
:101C9000F404D9201BC40C5C0E9804C4095F0265CF
:101CA000077101F405F900FB04B30048048700C183
:101CB0000369005803550003034500BE023A00843F
:101CC00002310053022A002902250004022000E408
:101CD000011C00C8011900AF01170098011400840D
:101CE000011300710110006101100051010E004349
:101CF000010D0036010B002B010B0020010B00151C
:101D00000109000C01090003010800FB000800F3B1
:101D1000000800EB000700E4000600DE000600D823
:101D2000000600D2000600CC000500C7000500C276
:101D3000000500BD000400B9000400B5000400B1B6
:101D4000000400AD000400A9000400A5000300A2E7
:101D50000003009F0004009B00030098000300950F
:101D600000020093000300900003008D0002008B2E
:101D70000003008800020086000200840003008146
:101D80000002007F0002007D0002007B000200795B
:101D90000002007700010076000200740002007269
:101DA000000100710002006F0002006D0001006C74
:101DB0000002006A0001006900020067000100667D
:101DC0000001006500010064000200620001006182
:101DD000000100600001005F0002005D0001005C86
:101DE0000001005B0001005A000100590001005889
:101DF0000001005700010056000100550001005489
:101E00000001005300000053000100520001005186
:101E1000000100500001004F0001004E0000004E84
:101E20000001004D0001004C0001004B0000004B80
:101E30000001004A0001004900010048000000487C
:101E40000001004700010046000000460001004577
:101E50000000004500010044000100430000004371
:101E6000000100420000004200010041000000416A
:101E7000000100400001003F0000003F0001003E63
:101E80000000003E0001003D0000003D0001003C5C
:101E90000000003C0000003C0001003B0000003B53
:101EA0000001003A0000003A00010039000000394A
:101EB0000001003800000038000000380001003741
:101EC0000000003700010036000000360000003638
:101ED000000100350000003500000035000100342D
:101EE0000000003400000034000100330000003323
:101EF0000000003300010032000000320000003218
:101F0000000100310000003100000031000100300C
:101F100000000030000000300001002F0000002F02
:101F20000000002F0000002F0001002E0000002EF6
:101F30000000002E0001002D0000002D0000002DEB
:101F40000000002D0001002C0000002C0000002CDF
:101F50000000002C0001002B0000002B0000002BD3
:101F60000000002B0001002A0000002A0000002AC7
:101F70000000002A000100290000002900000029BB
:101F800000000029000000290001002800000028AE
:101F900000000028000000280000002800010027A1
:101FA0000000002700000027000000270000002795
:101FB0000001002600000026000000260000002688
:101FC000000000260001002500000025000000257B
:101FD000000000250000002500000025000100246D
:101FE0000000002400000024000000240000002461
:101FF0000001002300000023000000230000002354
:102000000000002300000023000000230001002244
:102010000000002200000022000000220000002238
:10202000000000220001002100000021000000212A
:10203000000000210000002100000021000000211C
:10204000000100200000002000000020000000200F
:102050000000002000000020000000200000002000
:102060000001001F0000001F0000001F0000001FF3
:102070000000001F0000001F0000001F0001001EE4
:102080000000001E0000001E0000001E0000004DA9
:10209000383420582059205A2045006265640A00CF
:1020A0002C2073797374656D2073746F7070656420
:1020B00021204865617465725F49443A2000486593
:1020C0006174696E67206661696C6564004865616A
:1020D00074696E67206661696C6564004865617447
:1020E000696E67206661696C656400486561746942
:1020F0006E67206661696C656400544845524D41C5
:102100004C2052554E4157415900546865726D61DB
:102110006C2052756E61776179004572723A204D7C
:10212000415854454D50004D415854454D50207430
:102130007269676765726564004572723A204D493D
:102140004E54454D50004D494E54454D50207472EB
:1021500069676765726564004572723A204D494E41
:1021600054454D5020424544004D494E54454D5034
:1021700020747269676765726564004572723A20FF
:102180004D415854454D5020424544004D4158540E
:10219000454D5020747269676765726564001FFF62
:1021A000FFFFFFFFFF600000000001FF4000000094
:1021B0000000FF8000000000007F83CF00000C3093
:1021C0003F87FF80000C301F867980000C000F8C49
:1021D00030C7838C30E78C30CFC7CC31F38C30DC08
:1021E000ECEC33B98C30D86C6C33198C30D06C0C6F
:1021F00033198C30D86C0C33198C30DC6C0E3B19D5
:102200008C30CF7C079F198C30C77C038F1940001E
:102210000000000002600000000000061FFFFFFF3A
:10222000FFFFF800000000000000000000000000B8
:10223000000000000000000000000000000000009E
:10224000000000000000000000000000000000008E
:10225000000000000000000000000000000000007E
:10226000000000000000000000000000000000006E
:10227000000000000000000000000000000000005E
:10228000000000000000000000000000000000004E
:10229000000000000000000000000000000000003E
:1022A000000000000000000000000000000000002E
:1022B000000000000000000000000000000000001E
:1022C000000000000000000000000000000000000E
:1022D00000000000000000000000000000000000FE
:1022E00000000000000000000000000000000000EE
:1022F00000000000000000000000000000000000DE
:1023000000000000000000000000000000000000CD
:1023100000000000000000000000000000000000BD
:1023200000000000000000000000000000000000AD
:10233000000000000000000000000000000000009D
:102340000000000003C000000000000000000000CA
:10235000000000000FF0000000000000000000007E
:10236000000000001FF80000000000000000000056
:1023700000000000800000000000000000000000DD
:102380000000000184218000000000000000000027
:10239000000000070C30E00000000000000000001A
:1023A0000000001E3C3CF3FFFFFFFFFFFFFFFE7F2E
:1023B000FFFF801E7C3E7BFFFFFFFFFFFFFFFF2034
:1023C0000000401CFC3F3BFFFFFFFFFFFFFFFF90B3
:1023D0000000401CFC3F3BFFFFFFFFFFFFFFFFD063
:1023E00000006018FC3F1B79C0701BCEFF8390C8B3
:1023F0007CFE3018FFFF1A798060139CFF0721E8EC
:10240000FAFF1010FFFF0A799E67933CFE7FE7E416
:1024100006C31010FFFF0A799E67933CFE7FE7F426
:1024200006C31800FFFF02419E67920CFE63E7F4AB
:102430007EC30800FFFF02419E67920CFE47E7F44F
:10244000FEC31810FFFF02799E6793CCFE7FE7F46E
:1024500006C31018FC3F0A79A0E833CD0683E7E4F1
:102460007EBE3018FC3F1A79C1F073CE0F07E7E843
:10247000FC7C201CFC3F3BFFFFFFFFFFFFFFFFC872
:102480000000601EFC3E3BFFFFFFFFFFFFFFFF90D1
:102490000000401E3C3C7BFFFFFFFFFFFFFFFF20D3
:1024A0000000C00F1C38F3FFFFFFFFFFFFFFFE7FA0
:1024B000FFFF80030C30E00000000000000000007F
:1024C000000000018001800000000000000000000A
:1024D00000000000000000000000000000000000FC
:1024E000000000001FFC00000000000000000000D1
:1024F000000000000FF000000000000000000000DD
:102500000000000001C0000000000000000000000A
:1025100000000000000000000000000000000000BB
:1025200000000000000000000000000000000000AB
:10253000000000000000000000000000000000009B
:10254000000000000000000000000000000000008B
:10255000000000000000000000000000000000007B
:10256000000000000000000000000000000000006B
:10257000000000000000000000000000000000005B
:10258000000000000000000000000000000000004B
:10259000000000000000000000000000000000003B
:1025A000000000000000000000000000000000002B
:1025B000000000000000000000000000000000001B
:1025C000000000000000000000000000000000000B
:1025D00000000000000000000000000000000000FB
:1025E00000000000000000000000000000000000EB
:1025F00000000000000000000000000000000000DB
:1026000000000000000000000000000000000000CA
:1026100000000000000000000000000000000000BA
:1026200000000070012C0190012701B0012201C0BF
:10263000011D01F00118011002130130020E0160AA
:1026400002090190020401C002FF000003FA0040E9
:1026500003F5008003F000D003EB002004E60070D7
:1026600004E100E004DC004005D700C005D20040D2
:1026700006CD00D006C8008007C3003008BE00F0B9
:1026800008B900C009B400B00AAF00B00BAA00D06E
:102690000CA500000EA000500F9B00C0109600502B
:1026A00012910000148C00C0158700B0178200B092
:1026B000197D00D01B7800001E730040206E009032
:1026C000226900F024640040275F0090295A00E04E
:1026D0002B5500102E500020304B0010324600E0E9
:1026E00033410090353C001037370070383200A07D
:1026F000392D00B03A2800A03B2300603C1E00109A
:102700003D1900903D1400103E0F00703E0A00C0BD
:102710003E0500003F0000220A00656E7175657578
:1027200065696E672022006563686F3A00000020CB
:10273000002300260029002C002F00320000010099
:10274000000301060109010505050507050808083C
:1027500008020202020A0A08080404040401010132
:10276000010101010103030303030303030407073A
:10277000070C0C0C0C0C0C0C0C02020202060606D8
:1027800006060606060B0B0B0B0B0B0B0B010210C0
:10279000202008081020401020408002010201087B
:1027A000040201010204081020408080402010082B
:1027B0000402018004020180402010080402010884
:1027C00004020101020408102040800102040810E4
:1027D00020408000000A0B02090C0D0E08070304BC
:1027E00001000000000000000000000000000000E8
:1027F00000000000000000000000000000000012C7
:1028000011100000000000000000000000000000A7
:102810000000000000000000004B494C4C45442ED5
:102820002000202D20496E76616C696420657874E3
:102830007275646572206E756D62657220210A0082
:102840002020506C616E6E657242756666657242DC
:10285000797465733A20002046726565204D656D78
:102860006F72793A20004A616E203139203230315E
:10287000370A00436F6D70696C65643A2000284820
:102880006F6F6B6C6574203344290A00207C2041F3
:102890007574686F723A2000323031362D30372D22
:1028A00033312031323A303000204C61737420557E
:1028B0007064617465643A200020302E312E302D12
:1028C0005243310A004D61726C696E0020536F668D
:1028D00074776172652052657365740A00205761D0
:1028E000746368646F672052657365740A002042E0
:1028F000726F776E206F75742052657365740A006D
:102900002045787465726E616C2052657365740A37
:1029100000506F77657255700A0073746172740AA3
:10292000006572726F722077726974696E672074C5
:102930006F2066696C650A00456E6473746F70730E
:1029400020256320256320256320256300205A3A33
:102950000020593A0020583A00656E6473746F7015
:1029600073206869743A2000446F6E652073617645
:10297000696E672066696C652E0A004D3239004227
:10298000656400426564004E6F7A7A6C65004E6F34
:102990007A7A6C650046616E2073706565640046E6
:1029A000616E2073706565640054656D7065726159
:1029B000747572650042656400426564004E6F7A0A
:1029C0007A6C65004E6F7A7A6C650046616E207392
:1029D000706565640046616E2073706565640054BF
:1029E000656D7065726174757265004573746570AC
:1029F000732F6D6D004573746570732F6D6D005A84
:102A000073746570732F6D6D005A73746570732FD6
:102A10006D6D005973746570732F6D6D005973740B
:102A20006570732F6D6D005873746570732F6D6DC5
:102A3000005873746570732F6D6D00412D74726151
:102A400076656C00412D74726176656C00412D7263
:102A500065747261637400412D7265747261637490
:102A600000416D6178204500416D6178204500414D
:102A70006D6178205A00416D6178205A00416D6186
:102A800078205900416D6178205900416D617820AE
:102A90005800416D61782058005654726176206D5F
:102AA000696E005654726176206D696E00566D69CC
:102AB0006E00566D696E00566D6178204500566D4A
:102AC0006178204500566D6178205A00566D617816
:102AD000205A00566D6178205900566D6178205952
:102AE00000566D6178205800566D61782058005668
:102AF000652D6A65726B0056652D6A65726B0056AE
:102B00007A2D6A65726B00567A2D6A65726B005673
:102B100078792D6A65726B005678792D6A65726BCB
:102B200000416363656C00416363656C00436F6ED5
:102B300074726F6C004578747275646572004578C4
:102B4000747275646572004D6F7665205A004D6F22
:102B500076652059004D6F76652058004D6F76657B
:102B60002061786973004D6F766520302E316D6D70
:102B7000004D6F766520316D6D004D6F76652031AB
:102B8000306D6D00507265706172650052657374CE
:102B90006F7265206661696C736166650046696C79
:102BA000616D656E74004D6F74696F6E0054656D74
:102BB0007065726174757265004D61696E004D33A8
:102BC0003033205531204525692053256900507246
:102BD00065686561742041425320636F6E660050E2
:102BE00072656865617420504C4120636F6E6600A9
:102BF000504944204175746F74756E6500504944A6
:102C0000204175746F74756E65005049442D440001
:102C10005049442D44005049442D49005049442D09
:102C200049005049442D50005049442D500020087F
:102C30002046616374002008204661637400200808
:102C4000204D6178002008204D6178002008204D3B
:102C5000696E002008204D696E004F6666004F6E59
:102C600020004175746F74656D700046616E20734D
:102C70007065656420320046616E2073706565641E
:102C800020320046616E2073706565642031004615
:102C9000616E207370656564203100426564004296
:102CA0006564004E6F7A7A6C65004E6F7A7A6C6557
:102CB00000436F6E74726F6C00466C6F7700466CE9
:102CC0006F770046616E2073706565642032004640
:102CD000616E20737065656420320046616E2073FA
:102CE0007065656420310046616E207370656564AF
:102CF00020310042656400426564004E6F7A7A6C50
:102D000065004E6F7A7A6C65005370656564005398
:102D100070656564004D61696E005072656865613B
:102D20007420504C412042656400507265686561B2
:102D30007420504C41005072657061726500507291
:102D40006568656174204142532042656400507299
:102D5000656865617420414253005072657061720C
:102D600065004D3432380053776974636820706FA2
:102D7000776572206F6E004D383100537769746348
:102D80006820706F776572206F6666004D3830007E
:102D9000436F6F6C646F776E005072656865617425
:102DA00020414253005072656865617420504C4167
:102DB000004D38340044697361626C65207374653A
:102DC0007070657273004D6F76652061786973006D
:102DD00053657420686F6D65206F666673657473E4
:102DE00000473238205A00486F6D65205A0047323C
:102DF00038205900486F6D652059004732382058F7
:102E000000486F6D65205800473238004175746F77
:102E100020686F6D65004D61696E004D6F766520AD
:102E200058004D6F76652059004D6F7665205A0029
:102E300020746F6F206C6F6E672065787472757385
:102E4000696F6E2070726576656E7465640A002025
:102E5000636F6C6420657874727573696F6E20702F
:102E6000726576656E7465640A004D6178205465FC
:102E70006D703A20313530004D696E2054656D70AB
:102E80003A202D313400544265643A4550434F5343
:102E9000203130304B004D61782054656D703A2000
:102EA000333030004D696E2054656D703A202D31FD
:102EB000340054303A204550434F53203130304B8A
:102EC00000506F77657220537570706C793A2041AD
:102ED00054580050726F746F636F6C3A20312E300B
:102EE00000426175643A2032353030303000536131
:102EF000696E736D61727400457874727564657281
:102F0000733A203100687474703A2F2F6D61726CBF
:102F1000696E66772E6F7267004F64696E204F6E20
:102F20006500323031362D30372D33312031323A91
:102F3000303000302E312E302D524331004D617231
:102F40006C696E005072696E74657220537461749E
:102F50007300546865726D6973746F727300426FA9
:102F600061726420496E666F005072696E7465729A
:102F700020496E666F004D61696E005344206361A5
:102F80007264206F6B0A006F70656E526F6F7420F1
:102F90006661696C65640A00766F6C756D652E6993
:102FA0006E6974206661696C65640A005344206927
:102FB0006E6974206661696C0A006175746F2569B9
:102FC0002E67007C3C3E5E2B3D3F2F5B5D3B2C2AF9
:102FD000225C00434F4D4D554E49434154494F4E9D
:102FE0000044525952554E004552524F52530049D7
:102FF0004E464F004543484F0048656174696E670F
:103000002E2E2E004F64696E204F6E652072656112
:1030100064792E002042403A0020403A00202F00E0
:1030200020423A00202F0020543A0048656174691C
:103030006E6720646F6E652E003F0A0020573A00CD
:1030400048656174696E672E2E2E004F64696E208C
:103050004F6E652072656164792E00F42FEF2FE8C2
:103060002FE12FD32F6F66660044454255473A0043
:10307000205A3A0020593A0020436F756E74205848
:103080003A200020453A00205A3A0020593A005888
:103090003A0000002100240027002A002D00300003
:1030A000330001010000040107010A0100002200B1
:1030B000250028002B002E00310034000201000002
:1030C000050108010B01526573656E643A20006FBB
:1030D0006B00627573793A20706175736564206660
:1030E0006F7220696E7075740A00627573793A2088
:1030F00070617573656420666F7220757365720AFE
:1031000000627573793A2070726F63657373696ECC
:10311000670A004B494C4C45442E20004B494C4C0F
:1031200045442E2000506C6561736520726573659F
:1031300074005052494E5445522048414C54454425
:10314000005072696E7465722068616C7465642EDB
:10315000206B696C6C28292063616C6C6564210AA2
:1031600000000010C20000A0C00000000057617203
:103170006E696E673A20486F6D696E672042756DA3
:10318000702044697669736F72203C20310A000018
:10319000008041000080410000804100006C43003D
:1031A000004D4300003943FFFFFF4D3234004D32E4
:1031B000332025730057726974696E6720746F201D
:1031C00066696C653A20006F70656E206661696C97
:1031D00065642C2046696C653A20006F70656E202E
:1031E0006661696C65642C2046696C653A2000460E
:1031F000696C652073656C65637465640A002053AF
:10320000697A653A200046696C65206F70656E6565
:10321000643A20006F70656E206661696C65642C8D
:103220002046696C653A20004E6F772066726573A0
:10323000682066696C653A20004E6F7720646F697C
:103240006E672066696C653A20002220706F7300FB
:103250002220706172656E743A2200535542524FBB
:103260005554494E452043414C4C2074617267656A
:10327000743A22004B494C4C45442E20007472791C
:10328000696E6720746F2063616C6C207375622DAA
:1032900067636F64652066696C657320776974681D
:1032A00020746F6F206D616E79206C6576656C732C
:1032B0002E204D4158206C6576656C2069733A006C
:1032C0004572726F723A0043616E6E6F74206F7058
:1032D000656E20737562646972200046696C2E20E9
:1032E0004469612E0046696C2E204469612E004FAE
:1032F0006666004F6E20004520696E206D6D3300BC
:10330000436F6E74726F6C0043616E6E6F742065F4
:103310006E746572207375626469723A2000022EC1
:103320002E004D61696E00004578747275646564A5
:1033300020746F74616C3A200025696D00004C6F39
:103340006E67657374206A6F622074696D653A20D8
:103350000000546F74616C207072696E742074691F
:103360006D653A2000436F6D706C65746564202054
:103370003A20005072696E7420436F756E743A2063
:10338000004E414E494E495459494E46CDCCCC3D54
:103390000AD7233C17B7D13877CC2B329595E62442
:1033A0001FB14F0A000020410000C84200401C46E7
:1033B00020BCBE4CCA1B0E5AAEC59D7499C476CCB7
:1033C00011241FBECFEFD1E2DEBFCDBF00E00CBFA6
:1033D00014E0A0E0B2E0E0E9F2EB01E00BBF02C0D4
:1033E00007900D92AA33B107D9F725E1AAE3B4E01B
:1033F00001C01D92A938B207E1F719E1CFEDD9E17B
:1034000000E006C021970109802FFE010E94DBCC5D
:10341000CE3DD10780E00807A9F70E94B2C50C9401
:1034200036D90C9400002F923F924F925F926F9288
:103430007F928F929F92AF92BF92CF92DF92EF9244
:10344000FF920F931F93CF93DF93CDB7DEB7C75B88
:10345000D1090FB6F894DEBF0FBECDBF0091341274
:1034600020E6029F800111240C541F4E10934F043C
:1034700000934E0480919F1280FF19C027E2E22E34
:1034800027E2F22EF7018491882331F00E94A36E87
:103490003FEFE31AF30AF6CFD8018D918D0188230F
:1034A00019F00E94A36EF8CF8AE00E94A36E2091CB
:1034B0004E0430914F04F90180812F5F3F4F8032DD
:1034C000D1F3F0934F04E0934E048E3469F01091E1
:1034D0004E0400914F046AE270E0812F902F0E9409
:1034E00072D00097D1F420C0818190ED980F9A306E
:1034F00010F08D3261F73296DF0131962C91205316
:103500002A30D0F3CD01FC01019620812032D9F37D
:10351000F0934F04E0934E04DACFFC013196829190
:10352000803231F08A3221F0A12FB02F9D9102C05C
:103530001082F5CFFD01808111968032D9F380533E
:103540008A3020F007E217E20C947B3300E010E0B1
:103550004AE0409F9001419F300D112489010053A2
:1035600011098191080F111D87FD1A9580818053E3
:103570008A3078F37F013196D7018C918032D1F374
:10358000F0924704E092460421E030E030932015A9
:1035900020931F159D3411F40C94FE22943511F4E0
:1035A0000C943233973411F00C94553304301105D8
:1035B00009F417C538F480910D020230110508F0A6
:1035C0000CC119C00A35110509F453C750F40C3069
:1035D000110509F444C50C31110509F4E4C50C9436
:1035E0006F330B35110509F448C70C35110509F483
:1035F00049C70C946F33882311F40C946F330E94E5
:103600003F3B85E395E10E9422B80E9403428091EE
:103610009F1283FF16C020913515309136154091C9
:103620003715509138156091E7127091E81280912A
:10363000E9129091EA120E94EFD4882309F490C015
:10364000ACC08090411590904215A0904315B09069
:1036500044152091F3123091F4124091F5125091DB
:10366000F612C501B4010E94F2CC6B017C0120E08E
:1036700030E0A9010E94EFD4882369F280919A1268
:10368000882331F1C701B6010E9450CE97FF07C0D1
:1036900090958095709561957F4F8F4F9F4F6A3BB6
:1036A0007140810591050CF4B6CF80914115909140
:1036B0004215A0914315B09144158093F312909355
:1036C000F412A093F512B093F61207E217E233C09A
:1036D0002091A1023091A2024091A3025091A40234
:1036E0006091B70C7091B80C8091B90C9091BA0CA4
:1036F0000E94EFD487FFC6CF8092F3129092F4120B
:10370000A092F512B092F61207E217E2F801849146
:10371000882329F00E94A36E0F5F1F4FF7CF01EBA4
:1037200011E0F8018491882309F4ACCF0E94A36EC4
:103730000F5F1F4FF6CFF8018491882329F00E9474
:10374000A36E0F5F1F4FF7CF02E911E0F8018491DC
:10375000882309F460CF0E94A36E0F5F1F4FF6CF3E
:103760002091391530913A1540913B1550913C15F7
:103770006091EB127091EC128091ED129091EE122B
:103780000E94EFD4811109C0609100027091010282
:1037900080910202909103021AC06091860270919A
:1037A0008702072E000C880B990B0E94F5D42091FC
:1037B00000023091010240910202509103020E94E6
:1037C00054D52AE037ED43E25CE30E9454D50E94D1
:1037D00091390E9487390C946F33882311F40C942B
:1037E0006F330E943F3B89E40E946C3A882329F0A2
:1037F0000E94163B6B017C0103C0C12CD12C7601C9
:103800008AE40E946C3A882349F00E94163BA796EE
:103810006CAF7DAF8EAF9FAFA79706C0A7961CAECB
:103820001DAE1EAE1FAEA797A7019601C701B60138
:103830000E9454D54B015C01A7962CAD3DAD4EAD19
:103840005FADA797CA01B9010E9454D59B01AC0195
:10385000C501B4010E94F3CC0E94D7CFC157DF4FFE
:10386000688379838A839B83CF58D0408090E71206
:103870009090E812A090E912B090EA12AF968CAE48
:103880009DAEAEAEBFAEAF97A7019601C501B40124
:103890000E94F3CCEB966CAF7DAF8EAF9FAFEB97F2
:1038A0008090EB129090EC12A090ED12B090EE127E
:1038B000E3968CAE9DAEAEAEBFAEE397A7962CADB1
:1038C0003DAD4EAD5FADA797C501B4010E94F3CCED
:1038D000EF966CAF7DAF8EAF9FAFEF978090EF12FA
:1038E0009090F012A090F112B090F212C158DF4FF8
:1038F00088829982AA82BB82CF57D040A5019401C9
:1039000060913D1570913E1580913F159091401545
:103910000E94F2CCE7966CAF7DAF8EAF9FAFE7977A
:103920008090411590904215A0904315B090441599
:10393000CD56DF4F88829982AA82BB82C359D0407C
:103940008090F3129090F412A090F512B090F612BD
:10395000CD57DF4F88829982AA82BB82C358D0405C
:10396000A70196015058A3962CAF3DAF4EAF5FAF65
:10397000A397A7968CAD9DADAEADBFADA797B05840
:10398000AB968CAF9DAFAEAFBFAFAB978090351508
:1039900090903615A0903715B0903815C957DF4F65
:1039A00088829982AA82BB82C758D040EB962CAD00
:1039B0003DAD4EAD5FADEB97C501B4010E94F2CCB9
:1039C0006B017C018090391590903A15A0903B15C1
:1039D000B0903C15C557DF4F88829982AA82BB827E
:1039E000CB58D040EF962CAD3DAD4EAD5FADEF97CF
:1039F000C501B4010E94F2CC4B015C01A701960104
:103A0000A3966CAD7DAD8EAD9FADA3970E9454D5AE
:103A10002B013C01A5019401AB966CAD7DAD8EAD43
:103A20009FADAB970E9454D59B01AC01C301B2017D
:103A30000E94F3CC2B013C01A5019401A3966CAD2F
:103A40007DAD8EAD9FADA3970E9454D54B015C0117
:103A5000A7019601AB966CAD7DAD8EAD9FADAB97DA
:103A60000E9454D59B01AC01C501B4010E94F2CC67
:103A7000A30192010E9471CD6B017C0120E030E036
:103A8000A9010E94EFD487FF0AC02BED3FE049EC6B
:103A900050E4C701B6010E94F3CC6B017C010230F7
:103AA000110551F42BED3FE049EC50E4C701B6019C
:103AB0000E94F2CC6B017C0120E030E0A901C7013B
:103AC000B6010E94EFD481112EC0C957DF4F288163
:103AD00039814A815B81C758D040AF966CAD7DADCE
:103AE0008EAD9FADAF970E94EFD481111CC0C5571A
:103AF000DF4F288139814A815B81CB58D040E396E2
:103B00006CAD7DAD8EAD9FADE3970E94EFD481117A
:103B10000AC02BED3FE049EC50E4C701B6010E941A
:103B2000F3CC6B017C01C157DF4F288139814A8179
:103B30005B81CF58D040C701B6010E9454D59B018C
:103B4000AC010E9454D54B015C01E7962CAD3DAD14
:103B50004EAD5FADE797CA01B9010E9454D59B01F4
:103B6000AC01C501B4010E94F3CC0E94D7CF4B0138
:103B70005C012FE632E143E85AE30E94EFD487FD6F
:103B80002CC2C501B4010E9485CE0E9456CEE1969A
:103B90007FAF6EAFE197672B31F421E030E0E19623
:103BA0003FAF2EAFE197E1968EAC9FACE197B401A9
:103BB00080E090E00E94F3D44B015C019B01AC01DA
:103BC000C701B6010E94DFCDAF966CAF7DAF8EAF5F
:103BD0009FAFAF97A5019401E7966CAD7DAD8EAD1B
:103BE0009FADE7970E94DFCDC957DF4F6883798388
:103BF0008A839B83C758D040CD57DF4F28813981B6
:103C00004A815B81C358D040CD56DF4F68817981AE
:103C10008A819B81C359D0400E94F2CCA5019401B6
:103C20000E94DFCDC557DF4F688379838A839B83EA
:103C3000CB58D040AF962CAD3DAD4EAD5FADAF97FC
:103C4000CA01B9010E9454D520E030E040E05FE3B2
:103C50000E9454D59B01AC0160E070E080E89FE3D6
:103C60000E94F2CCE7966CAF7DAF8EAF9FAFE79727
:103C7000C158DF4F88809980AA80BB80CF57D04041
:103C800089869A86AB86BC86CD57DF4F888099801F
:103C9000AA80BB80C358D0408D869E86AF86B88AE6
:103CA00020E030E040E752E46091000270910102B0
:103CB00080910202909103020E94DFCD6B017C0192
:103CC0006091860270918702072E000C880B990B79
:103CD0000E94F5D49B01AC01C701B6010E9454D5E6
:103CE0002AE037ED43E25CE30E9454D5C158DF4F30
:103CF000688379838A839B83CF57D0400E94E6B044
:103D00009B01AC0128533F4F4F4F5F4FCD57DF4FC3
:103D1000288339834A835B83C358D040A0964FAC35
:103D2000A097A1965FACA197A2966FACA297A3961D
:103D30007FACA397D12C22242394312CE1968EAC16
:103D40009FACE1972814390409F431C10E94245E24
:103D50000E94E6B08B019C01CD57DF4F888099808F
:103D6000AA80BB80C358D040081919092A093B0909
:103D700037FD10C09B01AC0128533F4F4F4F5F4FA1
:103D8000CD57DF4F288339834A835B83C358D040A4
:103D90000E94F4B4D39438E13D150CF44BC0E7967F
:103DA0002CAD3DAD4EAD5FADE797AB966CAD7DAD47
:103DB0008EAD9FADAB970E9454D54B015C01AF9681
:103DC0002CAD3DAD4EAD5FADAF97B201C3010E94CA
:103DD00054D5A50194010E94F3CC7B018C01E79698
:103DE0002CAD3DAD4EAD5FADE797B201C3010E9472
:103DF00054D54B015C01AF962CAD3DAD4EAD5FADE2
:103E0000AF97AB966CAD7DAD8EAD9FADAB970E947D
:103E100054D59B01AC01C501B4010E94F2CC2B0129
:103E20003C01C701D801AB968CAF9DAFAEAFBFAF21
:103E3000AB975AC0B10180E090E00E94F3D4AF96F6
:103E40002CAD3DAD4EAD5FADAF970E9454D54B014B
:103E50005C010E94DCCD6B017C01C501B4010E94B4
:103E6000CCCF4B015C01A7019601A3966CAD7DAD53
:103E70008EAD9FADA3970E9454D52B013C01A501A7
:103E80009401A7966CAD7DAD8EAD9FADA7970E94B6
:103E900054D59B01AC01C301B2010E94F3CC2B01AC
:103EA0003C01A5019401A3966CAD7DAD8EAD9FAD97
:103EB000A3970E9454D54B015C01A7019601A796D8
:103EC0006CAD7DAD8EAD9FADA7970E9454D59B0183
:103ED000AC01C501B4010E94F2CCAB966CAF7DAFD2
:103EE0008EAF9FAFAB97D12C9201A301EB966CAD37
:103EF0007DAD8EAD9FADEB970E94F3CC69837A8345
:103F00008B839C83AB962CAD3DAD4EAD5FADAB9737
:103F1000EF966CAD7DAD8EAD9FADEF970E94F3CC6B
:103F20006D837E838F839887C957DF4F28813981BE
:103F30004A815B81C758D04069857A858B859C858D
:103F40000E94F3CC69877A878B879C87C557DF4FA0
:103F5000288139814A815B81CB58D0406D857E852F
:103F60008F8598890E94F3CC6D877E878F87988B89
:103F7000CE0101960E9422B8C090BC12C158DF4FFA
:103F8000E880F9800A811B81CF57D0409E01235FD2
:103F90003F4FAE01475F5F4FBE016B5F7F4FCE016A
:103FA00001960E94928B4FEF241A340AC7CEC0901C
:103FB000BC12C158DF4FE880F9800A811B81CF57BE
:103FC000D04021E435E14DE355E169E375E185E356
:103FD00095E10E94928B0E9487390E9403420C94C3
:103FE0006F3380E50E946C3A882329F00E940B3BD6
:103FF0006B017C0103C0C12CD12C760183E50E94AA
:104000006C3A882321F00E94D83B6B017C010E940E
:104010004B610E9403428091211590912215A0913D
:104020002315B0912415C80ED91EEA1EFB1E8091DF
:104030002002811105C060E08CEC91E00E948A5A58
:104040000E94E6B0DC01CB018C199D09AE09BF09C5
:10405000B7FD02C00C946F330E94F4B4F1CFD0903E
:10406000BA0481E0D8260091BB0408271091BC0453
:104070001827D11005C0011103C011F40C94A63308
:1040800087E2E82E87E2F82EF7018491882331F049
:104090000E94A36E2FEFE21AF20AF6CFB6EFEB2ED4
:1040A000B1E0FB2EF7018491882331F00E94A36ECA
:1040B000FFEFEF1AFF0AF6CFD11003C0011112C0B3
:1040C0000EC0A4EFEA2EA1E0FA2EF7018491882316
:1040D000A9F30E94A36EFFEFEF1AFF0AF6CF1111AA
:1040E00014C00EC0F2EFEF2EF1E0FF2EF701849125
:1040F0008823A9F30E94A36EFFEFEF1AFF0AF6CF01
:10410000E8EEEE2EE1E0FE2E0EC070EFE72E71E03D
:10411000F72EF7018491882399F30E94A36EFFEF95
:10412000EF1AFF0AF6CFF7018491882331F00E943D
:10413000A36EFFEFEF1AFF0AF6CF19821A821B82D5
:104140001C82FE0135968FE3DF011D928A95E9F707
:1041500062EE71E0CE0101960E9474D4DD2031F050
:1041600060EE71E0CE0101960E9474D4002331F01C
:104170006EED71E0CE0101960E9474D4112331F0EE
:104180006CED71E0CE0101960E9474D465ED71E092
:10419000CE0101960E9474D460E0CE0101960E9487
:1041A0009F5A0C946F330E944B6180910002909152
:1041B0000102A0910202B091030280934A049093FD
:1041C0004B04A0934C04B0934D04809186029091CF
:1041D0008702909349048093480484E690E090938A
:1041E0008702809386020E94034211E010936D02C1
:1041F00088E50E946C3AC82E89E50E946C3AD82E58
:104200008AE50E946C3A782EC11004C0D11004C017
:10421000812703C0D11001C080E08093040290E1A7
:10422000E7EEF2E1A5E3B5E101900D929A95E1F791
:10423000811104C0C11002C0DD2091F120E030E006
:1042400040EA50E460918F1070919010809191102D
:10425000909192100E94F3CC20913115309132153B
:1042600040913315509134150E94F3CC4B015C0101
:1042700060933D1570933E1580933F1590934015C4
:104280002091EF123091F0124091F1125091F21200
:104290000E948ECF181624F4C501B4010E942CA3ED
:1042A00080910402811106C0CC2009F49EC0DD205B
:1042B00009F49BC01092EB121092EC121092ED12C6
:1042C0001092EE121092E7121092E8121092E91278
:1042D0001092EA120E94033FE7EAF1E304918BE9AE
:1042E00091E30E941B3A4B015C018FE991E30E942C
:1042F0001B3A1B012C019B01AC01C501B4010E94BA
:104300008ECF18162CF4A5019401C201B10104C08E
:10431000A2019101C501B4010E94DFCD9B01AC0156
:104320000E9454D520E030E040E85FE30E94F3CCE7
:104330000E94D7CFE8EAF1E3149120E030E84BE3A4
:1043400055E40E9454D5A3966CAF7DAF8EAF9FAF5E
:10435000A39720E030E040EC5FE3C201B1010E948E
:1043600054D51B012C01612F110F770B880B990B72
:104370000E94F5D49B01AC01C201B1010E9454D549
:104380001B012C0120E030E040EC5FE3C501B401EB
:104390000E9454D54B015C01602F000F770B880BF6
:1043A000990B0E94F5D49B01AC01C501B4010E9498
:1043B00054D5A396ECACFDAC0EAD1FADA397A201F6
:1043C00091010E9461391092B3101092EB12109279
:1043D000EC121092ED121092EE121092E71210925F
:1043E000E8121092E9121092EA12809104028111EF
:1043F00002C0CC2021F080E090E00E945DB380916B
:104400000402811102C0DD2021F081E090E00E94D1
:104410005DB380910402811102C0772021F082E017
:1044200090E00E945DB30E94033F8091B5048093A9
:104430006D021092B31080914A0490914B04A091A8
:104440004C04B0914D048093000290930102A0931C
:104450000202B09303028091480490914904909322
:104460008702809386020E9403420E94C5AA0C9490
:104470006F33109245040C946F3381E080934504B0
:104480000C94703385E40E946C3AB82E811102C0FE
:104490000E944B612BEB822E22E0922E37EEC32E30
:1044A00032E1D32E49E2E42E45E1F42E00E010E0A3
:1044B000A12CD4018D914D010E946C3A882309F4FE
:1044C0004EC0F6012081318142815381C055DF4FBA
:1044D0002883C05BD040CF54DF4F3883C15BD040CE
:1044E000CE54DF4F4883C25BD040CD54DF4F58835A
:1044F000C35BD0400E94163BD6016D937D938D9394
:104500009C931397C055DF4F2881C05BD040CF5498
:10451000DF4F3881C15BD040CE54DF4F4881C25B52
:10452000D040CD54DF4F5881C35BD04003301105DC
:10453000B1F00E94F2CC9B01AC01F7016081718166
:10454000828193810E94F3CCD7016D937D938D93EB
:104550009C931397C8010E94213AAA24A3940F5F49
:104560001F4FB4E0CB0ED11CE4E0EE0EF11C043082
:10457000110509F09ECFAA2021F00E94033F0C9460
:104580006F33BB2011F40C946F33209103133091DF
:10459000041340910513509106136091F31270912A
:1045A000F4128091F5129091F6120E9454D50E9457
:1045B00099CF60939C0D70939D0D80939E0D909369
:1045C0009F0D8FB7F89440919C0D50919D0D609177
:1045D0009E0D70919F0D4093E3125093E4126093EF
:1045E000E5127093E6128FBF10928C0D10928D0D14
:1045F00010928E0D10928F0D0C946F330D361105A5
:1046000009F481C408F0C7C00A32110509F4EBC3EC
:1046100008F05AC00731110509F456C270F502318D
:10462000110509F46BC6D8F40230110508F475C100
:104630000131110511F00C946F3360E08CE292E0CF
:104640000E948A5A5F988A989FB7F89480910801CF
:104650008E7F809308019FBF12980C946F330531B1
:10466000110509F427C208F029C20431110511F01F
:104670000C946F3304E412E0DCC10B31110509F432
:104680004DC238F40931110509F430C208F423C2CF
:1046900037C20E31110509F445C260F40C31110521
:1046A00011F00C946F3340E060E0C7010E9473BBCF
:1046B0000C946F330F31110509F491C300321105C9
:1046C00009F43DC30C946F330335110509F411C689
:1046D00068F50E34110509F4A8C378F40C341105FB
:1046E00009F485C308F09DC30B34110511F00C9437
:1046F0006F330E944EA30C946F330135110509F4FA
:10470000D3C508F0F2C50035110511F00C946F33D4
:10471000269A2E9881E08093880260E080EC92E0F7
:104720000E948A5A0E94B05A0C946F3308361105C1
:1047300009F47FC3E8F40535110509F40EC608F441
:10474000DDC50C35110511F00C946F335BEB852E34
:1047500052E0952E07EF12E162E6A62E62E1B62E38
:10476000A0EAB2E1A196BFAFAEAFA197312C08C6C7
:104770000A36110509F456C508F4A9C30B3611050C
:1047800009F47AC50C36110511F00C946F331092B0
:1047900005020C946F330C3C110511F40C94F42BAE
:1047A00008F054C00737110509F48AC6E8F4013748
:1047B000110509F461C338F40F36110509F450C32B
:1047C00008F43BC351C30337110509F45BC608F471
:1047D00066C60537110511F00C946F3360E0C70110
:1047E0000E949F5A0C946F330139110509F4CEC60B
:1047F00078F40937110509F45DC608F454C60C387D
:10480000110511F00C946F330E947DAB0C946F3343
:10481000083C110509F469C730F40E3B110509F491
:1048200076C30C946F33093C110509F4A7C70B3C00
:10483000110511F00C946F3382E6E82E82E1F82E18
:104840000BEB12E094E0D92ED00EBFC70F32F1E08F
:104850001F0711F40C94C42E80F50D3D110511F4C1
:104860000C940E2D78F40E3C110511F40C94BA2C16
:1048700010F40C945E2C0C3D110511F40C94012DD8
:104880000C946F330C3231E0130711F40C94772D34
:1048900038F4023E110511F40C94272D0C946F335B
:1048A0000D3251E0150711F40C949F2D0E3211407A
:1048B00011F40C94592E0C946F33053F91E01907B5
:1048C00011F40C940E33A0F40A39B1E01B0709F47B
:1048D000CFC20C3AE1E01E0711F40C94F631003916
:1048E000114011F00C946F330E944B610C946F33A4
:1048F000073F21E0120711F40C94173310F40C94C5
:104900001433003A43E0140709F45FC2073E134032
:1049100011F40C9424330C946F3380E50E946C3AAC
:10492000882359F00E940B3B4B015C0111E0672B7F
:10493000682B692B31F410E004C010E0812C912C1D
:10494000540183E50E946C3A882399F00E94D83B79
:104950004B015C0111110FC0672B682B692B59F4B7
:10496000D7018C91882339F061E0C7010E949F5ADA
:1049700007C01123A9F360E08BE192E00E948A5AFC
:1049800081E08093BE041092BD040E944B610E949E
:10499000034281149104A104B10439F180912115DD
:1049A00090912215A0912315B0912415880E991E7F
:1049B000AA1EBB1E83E090E09093201580931F15E4
:1049C0000E94E6B0DC01CB0188199909AA09BB094C
:1049D000B7FD02C00C94543580910E0582FF02C0D1
:1049E0000C9454350E94F4B4EBCF83E090E09093A4
:1049F000201580931F1580910E0582FD03C00E9433
:104A0000F4B4F9CF81E090E09093201580931F15C6
:104A10008091EB0D60E0882331F08CEF91E00E94F3
:104A20008A5A0C946F338BE092E00E948A5A0C945D
:104A30006F33F8018491882329F00E94A36E0F5FE1
:104A40001F4FF7CF109271101092701040E050E09D
:104A5000BA018CE19EE00E94F3488BE1ECE1FEE0BC
:104A6000DE01159601900D928A95E1F780911A0E5C
:104A700090911B0E9C838B838BE693E09A838983B2
:104A800040E050E0BE016F5F7F4F89E194E00E94FB
:104A900047B9CE0101960E947AB405E312E0F8010D
:104AA0008491882311F40C946F330E94A36E0F5FDE
:104AB0001F4FF5CF0E943EA10C946F331092EB0D67
:104AC0001092EC0D0C946F3340E061E0C7010E943E
:104AD00073BB0C946F338091EC0D882319F081E047
:104AE0008093EB0D0E944EA30C946F338091EB0DDD
:104AF000882311F40C946F331092EB0D0C946F33E8
:104B00008091EC0D882311F40C946F3383E50E949F
:104B10006C3A81110C9460350C946F330E943838D4
:104B20000C946F338091EC0D882311F40C946F3347
:104B300086EB9FE00E94C14886EB9FE00E94E2A4C2
:104B40001092EA0D1092E90DC0904604D0904704EF
:104B50008091EC0D882311F40C946F3386EB9FE069
:104B60000E94E2A41092EB0D1D8218861C821B820B
:104B70008BE693E09A83898388E19EE09093380ED8
:104B80008093370ED6018C91FE01EC5BFF4F7F01C5
:104B90008F3209F05EC06FE270E0C6010E9472D0F1
:104BA0008C010F5F1F4F9E012F5F3F4F4901011581
:104BB000110509F454C06FE270E0C8010E9472D080
:104BC0005C01009709F44CC00817190708F048C0A9
:104BD0003C01601A710AA301B801C7010E949BD071
:104BE000F701E60DF71D10828701D8018D918D0127
:104BF000882319F00E94A36EF8CF8AE00E94A36E6A
:104C00006091370E7091380E6115710511F06C5F6F
:104C10007F4F21E0A701CE0105960E9409A98111CD
:104C200010C0A701FF0C660B770B8BE792E00E9488
:104C3000053F8EE20E94A36EC4010E947AB40C94D8
:104C40006F339092380E8092370E85010F5F1F4FA1
:104C5000AECF89E39EE09093380E8093370E8601A5
:104C60006091370E7091380E6115710511F06C5F0F
:104C70007F4FF7011082138222E0A801C7010E9432
:104C800009A9811102C0D12C13C0C7010E946C7008
:104C90008823C9F361E0C7010E94EBA4009799F350
:104CA00025EEDC012C93F70113820E94D146D82E09
:104CB000C7010E948B41D11005C093E6E92E92E016
:104CC000F92E22C085E5E82E82E0F82EF7018491C6
:104CD000882331F00E94A36EFFEFEF1AFF0AF6CF90
:104CE000D8018D918D01882319F00E94A36EF8CF11
:104CF0008AE00E94A36E10926710109268101092C2
:104D0000691010926A1015C0F7018491882331F060
:104D10000E94A36EBFEFEB1AFB0AF6CFD8018D916C
:104D20008D01882319F00E94A36EF8CF8EE20E94B5
:104D3000A36ECE0101960E947AB40C946F338091D9
:104D4000EB0D81110E944B610091460410914704C4
:104D500061E270E0C8010E9472D0009719F08C01E6
:104D60000F5F1F4F80E50E946C3A882349F0FF24B3
:104D7000F39480913A0490913B048017910708F0D6
:104D8000F12C8091EC0D882311F40C946F334F2D8E
:104D900061E0C8010E9473BB83E50E946C3A8823DE
:104DA00049F080913A0490913B048017910710F4E8
:104DB0000C9471358091EC0D882319F081E080937B
:104DC000EB0DF1100C946F338DCE81E08093EA0DE2
:104DD00040E060E0C7010E9473BB0C946F330E94F7
:104DE000B4410C946F330E94C83A0C946F33809195
:104DF000C00D9091C10D019711F00C946F3382E0BA
:104E000090E09093C10D8093C00D0E94E6B0609336
:104E1000CA0D7093CB0D8093CC0D9093CD0D0C9457
:104E20006F330E94FE700C946F330E9470400C949C
:104E30006F330E9459AE0C946F338EE40E946C3A2B
:104E4000882311F40C946F330E94CEC260933C040B
:104E500070933D0480933E0490933F040C946F3311
:104E60000E9491AB0C946F338FE892E00E9493B450
:104E70000E9457AA0C946F3383E50E946C3A8823F2
:104E800069F00E947F3A8093AC028D3310F40C9449
:104E90006F338CE38093AC020C946F3307E217E21C
:104EA000F8018491882329F00E94A36E0F5F1F4FA1
:104EB000F7CF4091AC0250E060E070E088E992E00A
:104EC0000E94053F8AE00E94A36E0C946F3389E62E
:104ED00090E00E94713F811110C00FE912E0F801CB
:104EE0008491882329F00E94A36E0F5F1F4FF7CF94
:104EF0000E94FBAB8AE00E94A36E109220151092D4
:104F00001F150C9463370E947DAC0C946F33809115
:104F10009F1283FF02C00C946F3360E083EB92E03A
:104F20000E948A5A83E50E946C3AA8968FAFA89790
:104F3000811105C082E50E946C3A8823B1F00E947D
:104F4000163B0E9450CE7093B7126093B6120E9427
:104F5000F26D0E94163B20E030E040E651EC0E94EA
:104F60008ECF181614F40E944EA381E080930502A0
:104F70001092201510921F158091BC12809340044E
:104F8000A7961CAE1DAE1EAE1FAEA797AF961CAE69
:104F90001DAE1EAE1FAEAF97A0961FAEA097E096B7
:104FA0001FAEE097FCE3E496FFAFE4972CE1E896B0
:104FB0002FAFE89736E4EC963FAFEC97C12CD12C9D
:104FC000B0E8EB2E1FEBF12E812C912C5401609157
:104FD000B6127091B712072E000C880B990B0E9425
:104FE000F5D4162F072F782E692E262F372F482F0E
:104FF000592FB601C7010E94EFD4882311F12091E7
:10500000B6043091B7044091B8045091B904612FAF
:10501000702F872D962D0E94EFD4881F8827881F18
:10502000A0968FAFA097A8964FADA897442369F09C
:10503000882359F060E082EA92E00E948A5A0C9438
:105040006F331C2D0D2D7E2C6F2C0E94E6B06B0152
:105050007C01DC01CB01AF962CAD3DAD4EAD5FAD1B
:10506000AF97821B930BA40BB50BB7FD49C0D701BB
:10507000C60188519C4FAF4FBF4FAF968CAF9DAFCD
:10508000AEAFBFAFAF970E94FBABAFEA4A2EA2E034
:105090005A2EF2018491882331F00E94A36E9FEF73
:1050A000491A590AF6CF81149104A104B104D1F030
:1050B000D501C401805F984DAF4FBF4FBC01CD01FA
:1050C0006C197D098E099F0928EE33E040E050E01D
:1050D0000E94FBD8CA01B9010E942F6F8AE00E948A
:1050E000A36E0EC0FCEA4F2EF2E05F2EF201849117
:1050F000882331F00E94A36EFFEF4F1A5F0AF6CFAC
:105100000E94F4B40E9403422090B6043090B70489
:105110004090B8045090B9049101A201612F702F02
:10512000872D962D0E94F2CC9F7781149104A104C3
:10513000B10449F420E030E040E85FE30E94EFD49E
:1051400087FF0BC008C020E030E040E450E40E943C
:105150008ECF181614F446015701A096FFADA09704
:10516000FF2309F443C0A7962CAD3DAD4EAD5FAD16
:10517000A797211531054105510541F0D701C60119
:10518000821B930BA40BB50BB7FD30C09101A2019C
:10519000E0966FADE097E4967FADE497E8968FAD2B
:1051A000E897EC969FADEC970E94F2CC20E030E0BF
:1051B00040EC5FE30E94EFD487FD3CCFD701C601EE
:1051C000805A9541AF4FBF4FA7968CAF9DAFAEAF02
:1051D000BFAFA797E0962FAEE097E4963FAEE49777
:1051E000E8964FAEE897EC965FAEEC97809105029B
:1051F000882309F41FCF81149104A104B10429F478
:10520000C12ED02EE72CF62CE2CE90E1C91A97E2FF
:10521000D90AE108F108C818D908EA08FB08F7FE1E
:1052200009CFEECF83E50E946C3A882321F00E94DB
:10523000AE3A8C0102C00FEF10E080E50E946C3A9C
:10524000882319F00E94AE3A02C080E090E09801F5
:105250000F3F110519F010F02FEF30E0823091056B
:1052600010F00C946F33880F991FFC01E854FD4E29
:10527000318320830C946F3380E50E946C3A88233D
:1052800041F00E94AE3A8230910510F00C946F33D9
:1052900002C080E090E0880F991FFC01E854FD4EA9
:1052A000118210820C946F330E94426E0E944B61F7
:1052B0000E9482B41092B9121092B8121092BB12CE
:1052C0001092BA1268EE73E080E090E00E94AEB0F7
:1052D000269A2E9A1092880260E080ED92E00E9459
:1052E0008A5A0E94B05A0C946F33109244040C9462
:1052F0006F3381E0809344040C94703383E50E9403
:105300006C3A882361F00E94D83B6093AD027093A1
:10531000AE028093AF029093B0020C946F3388E595
:105320000E946C3A81110C94833589E50E946C3A95
:1053300081110C9483358AE50E946C3A81110C949A
:10534000833585E40E946C3A81110C9483350E9468
:105350004B610E9482B40C946F3383E50E946C3AD7
:10536000882311F40C946F330E94D83B6093251569
:105370007093261580932715909328150C946F33FE
:10538000F40181914F010E946C3A882309F464C0B2
:10539000F3E03F1259C00E94163B2B013C0120E074
:1053A00030E040EA51E40E94EFD487FF47C0A301F8
:1053B0009201D8016D917D918D919C910E94DFCDDC
:1053C0006B017C019B01AC016091721270917312B0
:1053D00080917412909175120E9454D5609372124C
:1053E000709373128093741290937512A7019601B3
:1053F000F50160817181828193810E9454D5D5012C
:105400006D937D938D939C931397A196EEADFFAD15
:10541000A19760817181828193810E94F3D4A70159
:1054200096010E9454D50E9456CEA196AEADBFAD56
:10543000A1976D937D938D939C931397F801408270
:1054400051826282738208C00E94163BD8016D931C
:105450007D938D939C93139733940C5F1F4FB4E00F
:10546000AB0EB11CA196EEADFFADA1973496A196FF
:10547000FFAFEEAFA197F4E03F1282CF0E946F8B97
:105480000C946F330EED12E0F8018491882311F42F
:105490000C946F330E94A36E0F5F1F4FF5CF0E94D5
:1054A000C5AA0C946F3381E080936D028093B5049C
:1054B0000C94703310926D021092B5040C946F33FB
:1054C0000EEB13E0F8018491882329F00E94A36E6B
:1054D0000F5F1F4FF7CF06EB13E0F801849188238D
:1054E00029F00E94A36E0F5F1F4FF7CF659903C08D
:1054F0000DE813E002C002E913E0D8018D918D019F
:10550000882319F00E94A36EF8CF8AE00E94A36E50
:105510000EEA13E0F8018491882329F00E94A36E1B
:105520000F5F1F4FF7CF8091030181FD03C00DE88E
:1055300013E002C002E913E0D8018D918D018823A8
:1055400019F00E94A36EF8CF8AE00E94A36E06EACB
:1055500013E0F8018491882329F00E94A36E0F5F65
:105560001F4FF7CF4B9903C00DE813E002C002E9CB
:1055700013E0D8018D918D01882319F00E94A36E4C
:10558000F8CF8AE00E94A36E0C946F3383E50E94EB
:105590006C3A8823F9F00E94BB3A8230C0F000ECEC
:1055A00012E3F8018491882329F00E94A36E0F5F13
:1055B0001F4FF7CF08ED13E0F8018491882311F411
:1055C0000C946F330E94A36E0F5F1F4FF5CF813095
:1055D00009F446C088E40E946C3A882391F00E9446
:1055E000BB3A8A3A91053CF08E31F1E09F072CF0EE
:1055F0008DE191E002C08AEA90E0909339128093A5
:10560000381286E40E946C3A882381F00E94BB3AEB
:105610008F3F910519F014F08FEF90E097FF02C0D3
:1056200080E090E090933B1280933A1282E40E94D3
:105630006C3A882311F40C946F330E94BB3A88387B
:10564000910514F087E890E0823F2FEF920714F461
:1056500082EF9FEF90933712809336120C946F3342
:1056600088E40E946C3A882391F00E94BB3A8A3AFF
:1056700091053CF08E3131E093072CF08DE191E003
:1056800002C08AEA90E090933F1280933E1286E433
:105690000E946C3A882381F00E94BB3A8F3F9105AB
:1056A00019F014F08FEF90E097FF02C080E090E0D7
:1056B000909341128093401282E40E946C3A8823B6
:1056C00011F40C946F330E94BB3A8838910514F0A2
:1056D00087E890E0823F4FEF940714F482EF9FEF4A
:1056E00090933D1280933C12FAC788EC90E00E94A0
:1056F000713F8111F4C784E40E946C3A882309F455
:10570000EEC70E94163B11E020E030E0A9010E94A4
:10571000EFD4811101C010E010937F15112359F1CE
:105720000091400410E00E94163B000F111F000F73
:10573000111FF801EF54FD4F6083718382839383BF
:1057400020E030E0A9016091B1027091B202809135
:10575000B3029091B4020E94EFD481110CC080E09A
:1057600090E0A0E4B0E48093B1029093B202A093E1
:10577000B302B093B4020E940FB3B1C72AE4E22E81
:1057800022E1F22E0BEB12E034E0D32ED00ED80142
:105790008D918D010E946C3A882349F00E94163B3E
:1057A0000E9456CEF7016083718382839383F4E075
:1057B000EF0EF11CD012EBCF0E94278B90C7F4E0C4
:1057C000EF0EF11CD01609F48AC7D8018D918D0116
:1057D0000E946C3A882399F30E94163BF70160837C
:1057E000718382839383EBCF83E50E946C3A882395
:1057F000D9F00E94163BAB01BC0140937E1250933E
:105800007F126093801270938112409342125093E2
:105810004312609344127093451284E594E00E9411
:105820003D3F8AE00E94A36E80E50E946C3A882387
:1058300099F00E94163BAB01BC0140937E1250933D
:105840007F12609380127093811287E394E00E942C
:105850003D3F8AE00E94A36E82E50E946C3A882355
:1058600099F00E94163BAB01BC0140934612509345
:105870004712609348127093491288E194E00E94A5
:105880003D3F8AE00E94A36E84E50E946C3A882323
:1058900009F425C70E94163BAB01BC01409342129C
:1058A0005093431260934412709345128AEF93E031
:1058B0000E943D3F8AE00E94A36E11C783E50E94CB
:1058C0006C3A882351F00E94163B60935E127093ED
:1058D0005F12809360129093611284E50E946C3A8B
:1058E000882351F00E94163B60935A1270935B120A
:1058F00080935C1290935D1282E40E946C3A88233C
:1059000051F00E940B3B60939B1270939C1280930A
:105910009D1290939E1288E50E946C3A882351F064
:105920000E94163B60937A1270937B1280937C12D4
:1059300090937D128AE50E946C3A882351F00E9470
:10594000163B60937612709377128093781290933F
:10595000791285E40E946C3A882309F4C0C60E943B
:10596000163B60937212709373128093741290932B
:105970007512B5C6BBEBAB2EB2E0BB2E17EEC12E37
:1059800012E1D12E07E8E02E00E1F02E00E010E059
:10599000D5018D915D010E946C3A882311F10E941E
:1059A000163B2B013C01F70120813181428153815B
:1059B0000E94F2CC9B01AC01D6016D917D918D913D
:1059C0009C910E94F3CCF601608371838283938360
:1059D000D7014D925D926D927C921397C8010E94FF
:1059E000213A0F5F1F4FB4E0CB0ED11CE4E0EE0E66
:1059F000F11C0330110561F60E94033F0E94C5AA05
:105A00006EC683E50E946C3A882309F468C60E943A
:105A1000BB3A909387028093860261C68DED90E039
:105A20000E94713F81115BC683E50E946C3A882316
:105A300009F455C60091400410E00E94BB3A000FE3
:105A4000111FF801EC57FD4F9183808348C680E514
:105A50000E946C3A882309F442C60E94BB3A8C012A
:105A600083E50E946C3A882321F00E94BB3A7C01B6
:105A700003C0EE24EA94FE2CC7010196039708F0B8
:105A80002EC6EFEBF2E0819191918017910709F416
:105A900026C623E0EF30F207B1F717FD20C60E94BB
:105AA0004B61D02E60E0802F0E94ABAF3FEFE3163A
:105AB000F30631F0EA94EF2871F401E010E00DC034
:105AC000802F0E9439CA31E020E0892B09F030E0B4
:105AD000032F122F02C000E010E08D2D0E9439CA62
